{
  "contractName": "Crowdsale",
  "abi": [
    {
      "inputs": [
        {
          "internalType": "uint256",
          "name": "_initialRate",
          "type": "uint256"
        },
        {
          "internalType": "uint256",
          "name": "_initalLimit",
          "type": "uint256"
        },
        {
          "internalType": "contract IERC20",
          "name": "_tokenAddress",
          "type": "address"
        }
      ],
      "payable": false,
      "stateMutability": "nonpayable",
      "type": "constructor"
    },
    {
      "anonymous": false,
      "inputs": [
        {
          "indexed": true,
          "internalType": "address",
          "name": "_to",
          "type": "address"
        },
        {
          "indexed": false,
          "internalType": "uint256",
          "name": "_amount",
          "type": "uint256"
        }
      ],
      "name": "EthWithdrawn",
      "type": "event"
    },
    {
      "anonymous": false,
      "inputs": [
        {
          "indexed": false,
          "internalType": "uint256",
          "name": "_limit",
          "type": "uint256"
        }
      ],
      "name": "LimitUpdated",
      "type": "event"
    },
    {
      "anonymous": false,
      "inputs": [
        {
          "indexed": false,
          "internalType": "address",
          "name": "_buyer",
          "type": "address"
        },
        {
          "indexed": false,
          "internalType": "uint256",
          "name": "_ethAmount",
          "type": "uint256"
        },
        {
          "indexed": false,
          "internalType": "uint256",
          "name": "_tokenAmount",
          "type": "uint256"
        }
      ],
      "name": "Purchase",
      "type": "event"
    },
    {
      "anonymous": false,
      "inputs": [
        {
          "indexed": false,
          "internalType": "uint256",
          "name": "_rate",
          "type": "uint256"
        }
      ],
      "name": "RateUpdated",
      "type": "event"
    },
    {
      "anonymous": false,
      "inputs": [
        {
          "indexed": true,
          "internalType": "address",
          "name": "account",
          "type": "address"
        }
      ],
      "name": "SignerAdded",
      "type": "event"
    },
    {
      "anonymous": false,
      "inputs": [
        {
          "indexed": true,
          "internalType": "address",
          "name": "account",
          "type": "address"
        }
      ],
      "name": "SignerRemoved",
      "type": "event"
    },
    {
      "anonymous": false,
      "inputs": [
        {
          "indexed": true,
          "internalType": "address",
          "name": "_to",
          "type": "address"
        },
        {
          "indexed": false,
          "internalType": "uint256",
          "name": "_amount",
          "type": "uint256"
        },
        {
          "indexed": false,
          "internalType": "contract IERC20",
          "name": "_token",
          "type": "address"
        }
      ],
      "name": "TokenWithdrawn",
      "type": "event"
    },
    {
      "anonymous": false,
      "inputs": [
        {
          "indexed": true,
          "internalType": "address",
          "name": "account",
          "type": "address"
        }
      ],
      "name": "WhitelistAdminAdded",
      "type": "event"
    },
    {
      "anonymous": false,
      "inputs": [
        {
          "indexed": true,
          "internalType": "address",
          "name": "account",
          "type": "address"
        }
      ],
      "name": "WhitelistAdminRemoved",
      "type": "event"
    },
    {
      "anonymous": false,
      "inputs": [
        {
          "indexed": true,
          "internalType": "address",
          "name": "account",
          "type": "address"
        }
      ],
      "name": "WhitelistedAdded",
      "type": "event"
    },
    {
      "anonymous": false,
      "inputs": [
        {
          "indexed": true,
          "internalType": "address",
          "name": "account",
          "type": "address"
        }
      ],
      "name": "WhitelistedRemoved",
      "type": "event"
    },
    {
      "constant": false,
      "inputs": [
        {
          "internalType": "address",
          "name": "account",
          "type": "address"
        }
      ],
      "name": "addSigner",
      "outputs": [],
      "payable": false,
      "stateMutability": "nonpayable",
      "type": "function"
    },
    {
      "constant": false,
      "inputs": [
        {
          "internalType": "address",
          "name": "account",
          "type": "address"
        }
      ],
      "name": "addWhitelistAdmin",
      "outputs": [],
      "payable": false,
      "stateMutability": "nonpayable",
      "type": "function"
    },
    {
      "constant": false,
      "inputs": [
        {
          "internalType": "address",
          "name": "account",
          "type": "address"
        }
      ],
      "name": "addWhitelisted",
      "outputs": [],
      "payable": false,
      "stateMutability": "nonpayable",
      "type": "function"
    },
    {
      "constant": true,
      "inputs": [
        {
          "internalType": "address",
          "name": "account",
          "type": "address"
        }
      ],
      "name": "isSigner",
      "outputs": [
        {
          "internalType": "bool",
          "name": "",
          "type": "bool"
        }
      ],
      "payable": false,
      "stateMutability": "view",
      "type": "function"
    },
    {
      "constant": true,
      "inputs": [
        {
          "internalType": "address",
          "name": "account",
          "type": "address"
        }
      ],
      "name": "isWhitelistAdmin",
      "outputs": [
        {
          "internalType": "bool",
          "name": "",
          "type": "bool"
        }
      ],
      "payable": false,
      "stateMutability": "view",
      "type": "function"
    },
    {
      "constant": true,
      "inputs": [
        {
          "internalType": "address",
          "name": "account",
          "type": "address"
        }
      ],
      "name": "isWhitelisted",
      "outputs": [
        {
          "internalType": "bool",
          "name": "",
          "type": "bool"
        }
      ],
      "payable": false,
      "stateMutability": "view",
      "type": "function"
    },
    {
      "constant": true,
      "inputs": [],
      "name": "purchaseLimit",
      "outputs": [
        {
          "internalType": "uint256",
          "name": "",
          "type": "uint256"
        }
      ],
      "payable": false,
      "stateMutability": "view",
      "type": "function"
    },
    {
      "constant": true,
      "inputs": [],
      "name": "rate",
      "outputs": [
        {
          "internalType": "uint256",
          "name": "",
          "type": "uint256"
        }
      ],
      "payable": false,
      "stateMutability": "view",
      "type": "function"
    },
    {
      "constant": false,
      "inputs": [
        {
          "internalType": "address",
          "name": "account",
          "type": "address"
        }
      ],
      "name": "removeWhitelisted",
      "outputs": [],
      "payable": false,
      "stateMutability": "nonpayable",
      "type": "function"
    },
    {
      "constant": false,
      "inputs": [],
      "name": "renounceSigner",
      "outputs": [],
      "payable": false,
      "stateMutability": "nonpayable",
      "type": "function"
    },
    {
      "constant": false,
      "inputs": [],
      "name": "renounceWhitelistAdmin",
      "outputs": [],
      "payable": false,
      "stateMutability": "nonpayable",
      "type": "function"
    },
    {
      "constant": false,
      "inputs": [],
      "name": "renounceWhitelisted",
      "outputs": [],
      "payable": false,
      "stateMutability": "nonpayable",
      "type": "function"
    },
    {
      "constant": true,
      "inputs": [],
      "name": "token",
      "outputs": [
        {
          "internalType": "contract IERC20",
          "name": "",
          "type": "address"
        }
      ],
      "payable": false,
      "stateMutability": "view",
      "type": "function"
    },
    {
      "constant": false,
      "inputs": [],
      "name": "purchaseTokens",
      "outputs": [],
      "payable": true,
      "stateMutability": "payable",
      "type": "function"
    },
    {
      "constant": false,
      "inputs": [
        {
          "internalType": "uint256",
          "name": "_newLimit",
          "type": "uint256"
        }
      ],
      "name": "setPurchaseLimit",
      "outputs": [],
      "payable": false,
      "stateMutability": "nonpayable",
      "type": "function"
    },
    {
      "constant": false,
      "inputs": [
        {
          "internalType": "uint256",
          "name": "_newRate",
          "type": "uint256"
        }
      ],
      "name": "updateRate",
      "outputs": [],
      "payable": false,
      "stateMutability": "nonpayable",
      "type": "function"
    },
    {
      "constant": false,
      "inputs": [
        {
          "internalType": "address payable",
          "name": "_to",
          "type": "address"
        },
        {
          "internalType": "uint256",
          "name": "_amount",
          "type": "uint256"
        }
      ],
      "name": "withdrawEth",
      "outputs": [],
      "payable": false,
      "stateMutability": "nonpayable",
      "type": "function"
    },
    {
      "constant": false,
      "inputs": [
        {
          "internalType": "address",
          "name": "_to",
          "type": "address"
        },
        {
          "internalType": "uint256",
          "name": "_amount",
          "type": "uint256"
        },
        {
          "internalType": "contract IERC20",
          "name": "_token",
          "type": "address"
        }
      ],
      "name": "withdrawToken",
      "outputs": [],
      "payable": false,
      "stateMutability": "nonpayable",
      "type": "function"
    }
  ],
  "bytecode": "0x60806040523480156200001157600080fd5b5060405162001e2238038062001e22833981810160405260608110156200003757600080fd5b810190808051906020019092919080519060200190929190805190602001909291905050506200007c620000706200016b60201b60201c565b6200017360201b60201c565b6200009c620000906200016b60201b60201c565b620001d460201b60201c565b6000831162000113576040517f08c379a00000000000000000000000000000000000000000000000000000000081526004018080602001828103825260138152602001807f526174652063616e6e6f74206265207a65726f0000000000000000000000000081525060200191505060405180910390fd5b826006819055508160048190555080600560006101000a81548173ffffffffffffffffffffffffffffffffffffffff021916908373ffffffffffffffffffffffffffffffffffffffff160217905550505050620003f9565b600033905090565b6200018e8160006200023560201b620016f51790919060201c565b8073ffffffffffffffffffffffffffffffffffffffff167f22380c05984257a1cb900161c713dd71d39e74820f1aea43bd3f1bdd2096129960405160405180910390a250565b620001ef8160026200023560201b620016f51790919060201c565b8073ffffffffffffffffffffffffffffffffffffffff167f47d1c22a25bb3a5d4e481b9b1e6944c2eade3181a0a20b495ed61d35b5323f2460405160405180910390a250565b6200024782826200031960201b60201c565b15620002bb576040517f08c379a000000000000000000000000000000000000000000000000000000000815260040180806020018281038252601f8152602001807f526f6c65733a206163636f756e7420616c72656164792068617320726f6c650081525060200191505060405180910390fd5b60018260000160008373ffffffffffffffffffffffffffffffffffffffff1673ffffffffffffffffffffffffffffffffffffffff16815260200190815260200160002060006101000a81548160ff0219169083151502179055505050565b60008073ffffffffffffffffffffffffffffffffffffffff168273ffffffffffffffffffffffffffffffffffffffff161415620003a2576040517f08c379a000000000000000000000000000000000000000000000000000000000815260040180806020018281038252602281526020018062001e006022913960400191505060405180910390fd5b8260000160008373ffffffffffffffffffffffffffffffffffffffff1673ffffffffffffffffffffffffffffffffffffffff16815260200190815260200160002060009054906101000a900460ff16905092915050565b6119f780620004096000396000f3fe6080604052600436106101095760003560e01c806369ea177111610095578063bb5f747b11610064578063bb5f747b14610496578063d6cd9473146104ff578063e5c8b03d14610516578063eb12d61e1461052d578063fc0c546a1461057e57610109565b806369ea1771146103665780636edc4388146103a15780637362d9c8146103dc5780637df73e271461042d57610109565b80632c4e722e116100dc5780632c4e722e146102365780633290ce29146102615780633af32abf1461026b5780633ccdbb28146102d45780634c5a628c1461034f57610109565b806310154bad1461010e578063188866571461015f5780631b9a91a41461018a578063291d9549146101e5575b600080fd5b34801561011a57600080fd5b5061015d6004803603602081101561013157600080fd5b81019080803573ffffffffffffffffffffffffffffffffffffffff1690602001909291905050506105d5565b005b34801561016b57600080fd5b50610174610646565b6040518082815260200191505060405180910390f35b34801561019657600080fd5b506101e3600480360360408110156101ad57600080fd5b81019080803573ffffffffffffffffffffffffffffffffffffffff1690602001909291908035906020019092919050505061064c565b005b3480156101f157600080fd5b506102346004803603602081101561020857600080fd5b81019080803573ffffffffffffffffffffffffffffffffffffffff16906020019092919050505061087a565b005b34801561024257600080fd5b5061024b6108eb565b6040518082815260200191505060405180910390f35b6102696108f1565b005b34801561027757600080fd5b506102ba6004803603602081101561028e57600080fd5b81019080803573ffffffffffffffffffffffffffffffffffffffff169060200190929190505050610c81565b604051808215151515815260200191505060405180910390f35b3480156102e057600080fd5b5061034d600480360360608110156102f757600080fd5b81019080803573ffffffffffffffffffffffffffffffffffffffff16906020019092919080359060200190929190803573ffffffffffffffffffffffffffffffffffffffff169060200190929190505050610c9e565b005b34801561035b57600080fd5b5061036461101d565b005b34801561037257600080fd5b5061039f6004803603602081101561038957600080fd5b810190808035906020019092919050505061102f565b005b3480156103ad57600080fd5b506103da600480360360208110156103c457600080fd5b81019080803590602001909291905050506110d7565b005b3480156103e857600080fd5b5061042b600480360360208110156103ff57600080fd5b81019080803573ffffffffffffffffffffffffffffffffffffffff16906020019092919050505061117f565b005b34801561043957600080fd5b5061047c6004803603602081101561045057600080fd5b81019080803573ffffffffffffffffffffffffffffffffffffffff1690602001909291905050506111f0565b604051808215151515815260200191505060405180910390f35b3480156104a257600080fd5b506104e5600480360360208110156104b957600080fd5b81019080803573ffffffffffffffffffffffffffffffffffffffff16906020019092919050505061120d565b604051808215151515815260200191505060405180910390f35b34801561050b57600080fd5b5061051461122a565b005b34801561052257600080fd5b5061052b61123c565b005b34801561053957600080fd5b5061057c6004803603602081101561055057600080fd5b81019080803573ffffffffffffffffffffffffffffffffffffffff16906020019092919050505061124e565b005b34801561058a57600080fd5b506105936112bf565b604051808273ffffffffffffffffffffffffffffffffffffffff1673ffffffffffffffffffffffffffffffffffffffff16815260200191505060405180910390f35b6105e56105e06112e5565b61120d565b61063a576040517f08c379a00000000000000000000000000000000000000000000000000000000081526004018080602001828103825260408152602001806119196040913960400191505060405180910390fd5b610643816112ed565b50565b60045481565b61065c6106576112e5565b6111f0565b6106b1576040517f08c379a00000000000000000000000000000000000000000000000000000000081526004018080602001828103825260308152602001806119936030913960400191505060405180910390fd5b600073ffffffffffffffffffffffffffffffffffffffff168273ffffffffffffffffffffffffffffffffffffffff161415610754576040517f08c379a000000000000000000000000000000000000000000000000000000000815260040180806020018281038252601f8152602001807f52656365697665722063616e6e6f74206265207a65726f20616464726573730081525060200191505060405180910390fd5b3073ffffffffffffffffffffffffffffffffffffffff16318111156107e1576040517f08c379a00000000000000000000000000000000000000000000000000000000081526004018080602001828103825260108152602001807f4e6f7420656e6f7567682066756e64730000000000000000000000000000000081525060200191505060405180910390fd5b8173ffffffffffffffffffffffffffffffffffffffff166108fc829081150290604051600060405180830381858888f19350505050158015610827573d6000803e3d6000fd5b508173ffffffffffffffffffffffffffffffffffffffff167f8455ae6be5d92f1df1c3c1484388e247a36c7e60d72055ae216dbc258f257d4b826040518082815260200191505060405180910390a25050565b61088a6108856112e5565b61120d565b6108df576040517f08c379a00000000000000000000000000000000000000000000000000000000081526004018080602001828103825260408152602001806119196040913960400191505060405180910390fd5b6108e881611347565b50565b60065481565b6109016108fc6112e5565b610c81565b610956576040517f08c379a000000000000000000000000000000000000000000000000000000000815260040180806020018281038252603a815260200180611959603a913960400191505060405180910390fd5b600034116109af576040517f08c379a00000000000000000000000000000000000000000000000000000000081526004018080602001828103825260278152602001806118af6027913960400191505060405180910390fd5b60006109c6600654346113a190919063ffffffff16565b9050600454610a1d82600360003373ffffffffffffffffffffffffffffffffffffffff1673ffffffffffffffffffffffffffffffffffffffff1681526020019081526020016000205461142790919063ffffffff16565b1115610a91576040517f08c379a00000000000000000000000000000000000000000000000000000000081526004018080602001828103825260178152602001807f5075726368617365206c696d697420657863656564656400000000000000000081525060200191505060405180910390fd5b610ae381600360003373ffffffffffffffffffffffffffffffffffffffff1673ffffffffffffffffffffffffffffffffffffffff1681526020019081526020016000205461142790919063ffffffff16565b600360003373ffffffffffffffffffffffffffffffffffffffff1673ffffffffffffffffffffffffffffffffffffffff16815260200190815260200160002081905550600560009054906101000a900473ffffffffffffffffffffffffffffffffffffffff1673ffffffffffffffffffffffffffffffffffffffff1663a9059cbb33836040518363ffffffff1660e01b8152600401808373ffffffffffffffffffffffffffffffffffffffff1673ffffffffffffffffffffffffffffffffffffffff16815260200182815260200192505050602060405180830381600087803b158015610bcf57600080fd5b505af1158015610be3573d6000803e3d6000fd5b505050506040513d6020811015610bf957600080fd5b8101908080519060200190929190505050507f12cb4648cf3058b17ceeb33e579f8b0bc269fe0843f3900b8e24b6c54871703c333483604051808473ffffffffffffffffffffffffffffffffffffffff1673ffffffffffffffffffffffffffffffffffffffff168152602001838152602001828152602001935050505060405180910390a150565b6000610c978260016114af90919063ffffffff16565b9050919050565b610cae610ca96112e5565b6111f0565b610d03576040517f08c379a00000000000000000000000000000000000000000000000000000000081526004018080602001828103825260308152602001806119936030913960400191505060405180910390fd5b600073ffffffffffffffffffffffffffffffffffffffff168373ffffffffffffffffffffffffffffffffffffffff161415610da6576040517f08c379a000000000000000000000000000000000000000000000000000000000815260040180806020018281038252601f8152602001807f52656365697665722063616e6e6f74206265207a65726f20616464726573730081525060200191505060405180910390fd5b8073ffffffffffffffffffffffffffffffffffffffff166370a08231306040518263ffffffff1660e01b8152600401808273ffffffffffffffffffffffffffffffffffffffff1673ffffffffffffffffffffffffffffffffffffffff16815260200191505060206040518083038186803b158015610e2357600080fd5b505afa158015610e37573d6000803e3d6000fd5b505050506040513d6020811015610e4d57600080fd5b8101908080519060200190929190505050821115610ed3576040517f08c379a00000000000000000000000000000000000000000000000000000000081526004018080602001828103825260108152602001807f4e6f7420656e6f7567682066756e64730000000000000000000000000000000081525060200191505060405180910390fd5b8073ffffffffffffffffffffffffffffffffffffffff1663a9059cbb84846040518363ffffffff1660e01b8152600401808373ffffffffffffffffffffffffffffffffffffffff1673ffffffffffffffffffffffffffffffffffffffff16815260200182815260200192505050602060405180830381600087803b158015610f5a57600080fd5b505af1158015610f6e573d6000803e3d6000fd5b505050506040513d6020811015610f8457600080fd5b8101908080519060200190929190505050508273ffffffffffffffffffffffffffffffffffffffff167fa0524ee0fd8662d6c046d199da2a6d3dc49445182cec055873a5bb9c2843c8e08383604051808381526020018273ffffffffffffffffffffffffffffffffffffffff1673ffffffffffffffffffffffffffffffffffffffff1681526020019250505060405180910390a2505050565b61102d6110286112e5565b61158d565b565b61103f61103a6112e5565b6111f0565b611094576040517f08c379a00000000000000000000000000000000000000000000000000000000081526004018080602001828103825260308152602001806119936030913960400191505060405180910390fd5b806006819055507fe65c987b2e4668e09ba867026921588005b2b2063607a1e7e7d91683c8f91b7b6006546040518082815260200191505060405180910390a150565b6110e76110e26112e5565b6111f0565b61113c576040517f08c379a00000000000000000000000000000000000000000000000000000000081526004018080602001828103825260308152602001806119936030913960400191505060405180910390fd5b806004819055507f824bdce4cbdec6e790596be3c1ac027ebd2747f3b4f72e8e9b50a9ce5479fe406004546040518082815260200191505060405180910390a150565b61118f61118a6112e5565b61120d565b6111e4576040517f08c379a00000000000000000000000000000000000000000000000000000000081526004018080602001828103825260408152602001806119196040913960400191505060405180910390fd5b6111ed816115e7565b50565b60006112068260026114af90919063ffffffff16565b9050919050565b60006112238260006114af90919063ffffffff16565b9050919050565b61123a6112356112e5565b611347565b565b61124c6112476112e5565b611641565b565b61125e6112596112e5565b6111f0565b6112b3576040517f08c379a00000000000000000000000000000000000000000000000000000000081526004018080602001828103825260308152602001806119936030913960400191505060405180910390fd5b6112bc8161169b565b50565b600560009054906101000a900473ffffffffffffffffffffffffffffffffffffffff1681565b600033905090565b6113018160016116f590919063ffffffff16565b8073ffffffffffffffffffffffffffffffffffffffff167fee1504a83b6d4a361f4c1dc78ab59bfa30d6a3b6612c403e86bb01ef2984295f60405160405180910390a250565b61135b8160016117d090919063ffffffff16565b8073ffffffffffffffffffffffffffffffffffffffff167f270d9b30cf5b0793bbfd54c9d5b94aeb49462b8148399000265144a8722da6b660405160405180910390a250565b6000808314156113b45760009050611421565b60008284029050828482816113c557fe5b041461141c576040517f08c379a00000000000000000000000000000000000000000000000000000000081526004018080602001828103825260218152602001806118d66021913960400191505060405180910390fd5b809150505b92915050565b6000808284019050838110156114a5576040517f08c379a000000000000000000000000000000000000000000000000000000000815260040180806020018281038252601b8152602001807f536166654d6174683a206164646974696f6e206f766572666c6f77000000000081525060200191505060405180910390fd5b8091505092915050565b60008073ffffffffffffffffffffffffffffffffffffffff168273ffffffffffffffffffffffffffffffffffffffff161415611536576040517f08c379a00000000000000000000000000000000000000000000000000000000081526004018080602001828103825260228152602001806118f76022913960400191505060405180910390fd5b8260000160008373ffffffffffffffffffffffffffffffffffffffff1673ffffffffffffffffffffffffffffffffffffffff16815260200190815260200160002060009054906101000a900460ff16905092915050565b6115a18160006117d090919063ffffffff16565b8073ffffffffffffffffffffffffffffffffffffffff167f0a8eb35e5ca14b3d6f28e4abf2f128dbab231a58b56e89beb5d636115001e16560405160405180910390a250565b6115fb8160006116f590919063ffffffff16565b8073ffffffffffffffffffffffffffffffffffffffff167f22380c05984257a1cb900161c713dd71d39e74820f1aea43bd3f1bdd2096129960405160405180910390a250565b6116558160026117d090919063ffffffff16565b8073ffffffffffffffffffffffffffffffffffffffff167f3525e22824a8a7df2c9a6029941c824cf95b6447f1e13d5128fd3826d35afe8b60405160405180910390a250565b6116af8160026116f590919063ffffffff16565b8073ffffffffffffffffffffffffffffffffffffffff167f47d1c22a25bb3a5d4e481b9b1e6944c2eade3181a0a20b495ed61d35b5323f2460405160405180910390a250565b6116ff82826114af565b15611772576040517f08c379a000000000000000000000000000000000000000000000000000000000815260040180806020018281038252601f8152602001807f526f6c65733a206163636f756e7420616c72656164792068617320726f6c650081525060200191505060405180910390fd5b60018260000160008373ffffffffffffffffffffffffffffffffffffffff1673ffffffffffffffffffffffffffffffffffffffff16815260200190815260200160002060006101000a81548160ff0219169083151502179055505050565b6117da82826114af565b61182f576040517f08c379a000000000000000000000000000000000000000000000000000000000815260040180806020018281038252602181526020018061188e6021913960400191505060405180910390fd5b60008260000160008373ffffffffffffffffffffffffffffffffffffffff1673ffffffffffffffffffffffffffffffffffffffff16815260200190815260200160002060006101000a81548160ff021916908315150217905550505056fe526f6c65733a206163636f756e7420646f6573206e6f74206861766520726f6c654f6e6c79206e6f6e2d7a65726f20636f6e747269627574696f6e732061726520616c6c6f776564536166654d6174683a206d756c7469706c69636174696f6e206f766572666c6f77526f6c65733a206163636f756e7420697320746865207a65726f206164647265737357686974656c69737441646d696e526f6c653a2063616c6c657220646f6573206e6f742068617665207468652057686974656c69737441646d696e20726f6c6557686974656c6973746564526f6c653a2063616c6c657220646f6573206e6f742068617665207468652057686974656c697374656420726f6c655369676e6572526f6c653a2063616c6c657220646f6573206e6f74206861766520746865205369676e657220726f6c65a265627a7a72315820a020ba5fdb378683dbfb8c5a171caf72cdf6f47586216904a68253b3ac5e7a1d64736f6c634300050d0032526f6c65733a206163636f756e7420697320746865207a65726f2061646472657373",
  "source": "pragma solidity 0.5.13;\n\nimport \"../node_modules/openzeppelin-solidity/contracts/math/SafeMath.sol\";\nimport \"../node_modules/openzeppelin-solidity/contracts/access/roles/SignerRole.sol\";\nimport \"../node_modules/openzeppelin-solidity/contracts/access/roles/WhitelistedRole.sol\";\nimport \"../node_modules/openzeppelin-solidity/contracts/token/ERC20/IERC20.sol\";\n\ncontract Crowdsale is WhitelistedRole, SignerRole {\n  using SafeMath for uint256;\n\n  mapping(address => uint256) userPurchased;\n  uint256 public purchaseLimit;\n  IERC20 public token;\n\n  uint256 public rate;\n\n  constructor(uint256 _initialRate, uint256 _initalLimit, IERC20 _tokenAddress) public\n  {\n    require(_initialRate > 0, \"Rate cannot be zero\");\n    rate = _initialRate;\n    purchaseLimit = _initalLimit;\n    token = _tokenAddress;\n  }\n\n  /**\n    * @dev This function allow a whitelisted user to purchase tokens\n    */\n  function purchaseTokens() public payable onlyWhitelisted() {\n    require(msg.value > 0, \"Only non-zero contributions are allowed\");\n\n    uint256 toSend = msg.value.mul(rate);\n\n    require(\n      userPurchased[msg.sender].add(toSend) <= purchaseLimit,\n      \"Purchase limit exceeded\"\n    );\n\n    userPurchased[msg.sender] = userPurchased[msg.sender].add(toSend);\n\n    token.transfer(msg.sender, toSend);\n\n    emit Purchase(msg.sender, msg.value, toSend);\n\n  }\n\n  /**\n    * @dev This function allow the update of the purchase limit\n    * @param _newLimit How many token per ether\n    */\n  function setPurchaseLimit(uint256 _newLimit) public onlySigner() {\n    purchaseLimit = _newLimit;\n    emit LimitUpdated(purchaseLimit);\n  }\n\n  /**\n    * @dev This function allow a valid signer to update of the rate on the contract\n    * @dev The rate must always be an integer greater than 0\n    * @param _newRate How many tokens per ether\n    */\n  function updateRate(uint256 _newRate) public onlySigner() { \n    rate = _newRate;\n    emit RateUpdated(rate);\n  }\n\n  /**\n    * @dev This function allow a valid signer to retrieve eth\n    * @param _to Address that will receive the ether\n    * @param _amount Amount of ether to retrieve\n    */\n  function withdrawEth(address payable _to, uint256 _amount) public onlySigner() {\n    require(_to != address(0), \"Receiver cannot be zero address\");\n    require(_amount <= address(this).balance, \"Not enough funds\");\n    _to.transfer(_amount);\n    emit EthWithdrawn(_to, _amount);\n  }\n\n  /**\n    * @dev This function allow a valid signer to retrieve tokens\n    * @param _to Address that will receive the ether\n    * @param _amount Amount of ether to retrieve\n    * @param _token Token to retrieve (works for external stucked tokens)\n    */\n  function withdrawToken(address _to, uint256 _amount, IERC20 _token) public onlySigner()\n  {\n    require(_to != address(0), \"Receiver cannot be zero address\");\n    require(_amount <= _token.balanceOf(address(this)), \"Not enough funds\");\n    _token.transfer(_to, _amount);\n    emit TokenWithdrawn(_to, _amount, _token);\n  }\n\n  event Purchase(address _buyer, uint256 _ethAmount, uint256 _tokenAmount);\n  event LimitUpdated(uint256 _limit);\n  event RateUpdated(uint256 _rate);\n  event EthWithdrawn(address indexed _to, uint256 _amount);\n  event TokenWithdrawn(address indexed _to, uint256 _amount, IERC20 _token);\n}\n",
  "sourcePath": "/Users/tfr/Documents/PrivateProjects/erc20-tokensale/contracts/Crowdsale.sol",
  "compiler": {
    "name": "solc",
    "version": "0.5.13+commit.5b0b510c.Emscripten.clang"
  },
  "schemaVersion": "3.0.20",
  "updatedAt": "2020-01-03T08:28:49.204Z",
  "devdoc": {
    "methods": {
      "purchaseTokens()": {
        "details": "This function allow a whitelisted user to purchase tokens"
      },
      "setPurchaseLimit(uint256)": {
        "details": "This function allow the update of the purchase limit",
        "params": {
          "_newLimit": "How many token per ether"
        }
      },
      "updateRate(uint256)": {
        "details": "This function allow a valid signer to update of the rate on the contractThe rate must always be an integer greater than 0",
        "params": {
          "_newRate": "How many tokens per ether"
        }
      },
      "withdrawEth(address,uint256)": {
        "details": "This function allow a valid signer to retrieve eth",
        "params": {
          "_amount": "Amount of ether to retrieve",
          "_to": "Address that will receive the ether"
        }
      },
      "withdrawToken(address,uint256,address)": {
        "details": "This function allow a valid signer to retrieve tokens",
        "params": {
          "_amount": "Amount of ether to retrieve",
          "_to": "Address that will receive the ether",
          "_token": "Token to retrieve (works for external stucked tokens)"
        }
      }
    }
  },
  "userdoc": {
    "methods": {}
  }
}